{
  "contractName": "Cid",
  "abi": [
    {
      "constant": false,
      "inputs": [
        {
          "name": "_fileType",
          "type": "string"
        },
        {
          "name": "_cid",
          "type": "string"
        }
      ],
      "name": "addFile",
      "outputs": [],
      "payable": false,
      "stateMutability": "nonpayable",
      "type": "function"
    },
    {
      "constant": true,
      "inputs": [],
      "name": "getFiles",
      "outputs": [
        {
          "components": [
            {
              "name": "fileType",
              "type": "string"
            },
            {
              "name": "cid",
              "type": "string"
            },
            {
              "name": "isUploaded",
              "type": "bool"
            },
            {
              "name": "createdAt",
              "type": "uint256"
            },
            {
              "name": "updatedAt",
              "type": "uint256"
            }
          ],
          "name": "",
          "type": "tuple[]"
        }
      ],
      "payable": false,
      "stateMutability": "view",
      "type": "function"
    },
    {
      "constant": false,
      "inputs": [
        {
          "name": "_cid",
          "type": "string"
        }
      ],
      "name": "updateIsUploaded",
      "outputs": [],
      "payable": false,
      "stateMutability": "nonpayable",
      "type": "function"
    }
  ],
  "bytecode": "0x608060405234801561001057600080fd5b50610c8b806100206000396000f3fe608060405260043610610057576000357c0100000000000000000000000000000000000000000000000000000000900463ffffffff168063248bfc3b1461005c5780632da96d7314610085578063741f0d14146100b0575b600080fd5b34801561006857600080fd5b50610083600480360361007e91908101906108e4565b6100d9565b005b34801561009157600080fd5b5061009a610276565b6040516100a79190610afd565b60405180910390f35b3480156100bc57600080fd5b506100d760048036036100d291908101906108a3565b610488565b005b6000803373ffffffffffffffffffffffffffffffffffffffff1673ffffffffffffffffffffffffffffffffffffffff16815260200190815260200160002060000180549050610128338361059d565b14151561016a576040517f08c379a000000000000000000000000000000000000000000000000000000000815260040161016190610b3f565b60405180910390fd5b6000803373ffffffffffffffffffffffffffffffffffffffff1673ffffffffffffffffffffffffffffffffffffffff16815260200190815260200160002060000160a0604051908101604052808481526020018381526020016001151581526020014281526020014281525090806001815401808255809150509060018203906000526020600020906005020160009091929091909150600082015181600001908051906020019061021d9291906107a8565b50602082015181600101908051906020019061023a9291906107a8565b5060408201518160020160006101000a81548160ff02191690831515021790555060608201518160030155608082015181600401555050505050565b60606000803373ffffffffffffffffffffffffffffffffffffffff1673ffffffffffffffffffffffffffffffffffffffff168152602001908152602001600020600001805480602002602001604051908101604052809291908181526020016000905b8282101561047f578382906000526020600020906005020160a06040519081016040529081600082018054600181600116156101000203166002900480601f0160208091040260200160405190810160405280929190818152602001828054600181600116156101000203166002900480156103965780601f1061036b57610100808354040283529160200191610396565b820191906000526020600020905b81548152906001019060200180831161037957829003601f168201915b50505050508152602001600182018054600181600116156101000203166002900480601f0160208091040260200160405190810160405280929190818152602001828054600181600116156101000203166002900480156104385780601f1061040d57610100808354040283529160200191610438565b820191906000526020600020905b81548152906001019060200180831161041b57829003601f168201915b505050505081526020016002820160009054906101000a900460ff1615151515815260200160038201548152602001600482015481525050815260200190600101906102d9565b50505050905090565b6000803373ffffffffffffffffffffffffffffffffffffffff1673ffffffffffffffffffffffffffffffffffffffff168152602001908152602001600020600001805490506104d7338361059d565b101515610519576040517f08c379a000000000000000000000000000000000000000000000000000000000815260040161051090610b1f565b60405180910390fd5b60016000803373ffffffffffffffffffffffffffffffffffffffff1673ffffffffffffffffffffffffffffffffffffffff168152602001908152602001600020600001610566338461059d565b81548110151561057257fe5b906000526020600020906005020160020160006101000a81548160ff02191690831515021790555050565b600080600090505b6000808573ffffffffffffffffffffffffffffffffffffffff1673ffffffffffffffffffffffffffffffffffffffff1681526020019081526020016000206000018054905081101561075957826040516020018082805190602001908083835b60208310151561062a5780518252602082019150602081019050602083039250610605565b6001836020036101000a038019825116818451168082178552505050505050905001915050604051602081830303815290604052805190602001206000808673ffffffffffffffffffffffffffffffffffffffff1673ffffffffffffffffffffffffffffffffffffffff168152602001908152602001600020600001828154811015156106b357fe5b906000526020600020906005020160010160405160200180828054600181600116156101000203166002900480156107225780601f10610700576101008083540402835291820191610722565b820191906000526020600020905b81548152906001019060200180831161070e575b505091505060405160208183030381529060405280519060200120141561074c57809150506107a2565b80806001019150506105a5565b506000808473ffffffffffffffffffffffffffffffffffffffff1673ffffffffffffffffffffffffffffffffffffffff1681526020019081526020016000206000018054905090505b92915050565b828054600181600116156101000203166002900490600052602060002090601f016020900481019282601f106107e957805160ff1916838001178555610817565b82800160010185558215610817579182015b828111156108165782518255916020019190600101906107fb565b5b5090506108249190610828565b5090565b61084a91905b8082111561084657600081600090555060010161082e565b5090565b90565b600082601f830112151561086057600080fd5b813561087361086e82610b8c565b610b5f565b9150808252602083016020830185838301111561088f57600080fd5b61089a838284610bfe565b50505092915050565b6000602082840312156108b557600080fd5b600082013567ffffffffffffffff8111156108cf57600080fd5b6108db8482850161084d565b91505092915050565b600080604083850312156108f757600080fd5b600083013567ffffffffffffffff81111561091157600080fd5b61091d8582860161084d565b925050602083013567ffffffffffffffff81111561093a57600080fd5b6109468582860161084d565b9150509250929050565b600061095b82610bc5565b8084526020840193508360208202850161097485610bb8565b60005b848110156109ad57838303885261098f838351610a71565b925061099a82610bdb565b9150602088019750600181019050610977565b508196508694505050505092915050565b6109c781610be8565b82525050565b60006109d882610bd0565b8084526109ec816020860160208601610c0d565b6109f581610c40565b602085010191505092915050565b6000601682527f456c656d656e7420646f65736e6f7420657869737473000000000000000000006020830152604082019050919050565b6000601682527f456c656d656e7420616c726561647920657869737473000000000000000000006020830152604082019050919050565b600060a0830160008301518482036000860152610a8e82826109cd565b91505060208301518482036020860152610aa882826109cd565b9150506040830151610abd60408601826109be565b506060830151610ad06060860182610aee565b506080830151610ae36080860182610aee565b508091505092915050565b610af781610bf4565b82525050565b60006020820190508181036000830152610b178184610950565b905092915050565b60006020820190508181036000830152610b3881610a03565b9050919050565b60006020820190508181036000830152610b5881610a3a565b9050919050565b6000604051905081810181811067ffffffffffffffff82111715610b8257600080fd5b8060405250919050565b600067ffffffffffffffff821115610ba357600080fd5b601f19601f8301169050602081019050919050565b6000602082019050919050565b600081519050919050565b600081519050919050565b6000602082019050919050565b60008115159050919050565b6000819050919050565b82818337600083830152505050565b60005b83811015610c2b578082015181840152602081019050610c10565b83811115610c3a576000848401525b50505050565b6000601f19601f830116905091905056fea265627a7a72305820973de0ef3cea748c2a5338dac018b35c5bfb441c35e7e6452c54fb4866f34e466c6578706572696d656e74616cf50037",
  "source": "pragma solidity >=0.4.22 <0.9.0;\r\npragma experimental ABIEncoderV2;\r\n\r\ncontract Cid {\r\n    mapping(address => User) users;\r\n\r\n    struct User {\r\n        File[] files;\r\n    }\r\n    struct File {\r\n        string fileType;\r\n        string cid;\r\n        bool isUploaded;\r\n        uint256 createdAt;\r\n        uint256 updatedAt;\r\n    }\r\n\r\n    function findFileIndex(address _user, string memory _cid)\r\n        internal\r\n        view\r\n        returns (uint256)\r\n    {\r\n        for (uint256 i = 0; i < users[_user].files.length; i++) {\r\n            if (\r\n                keccak256(abi.encodePacked(users[_user].files[i].cid)) ==\r\n                keccak256(abi.encodePacked(_cid))\r\n            ) {\r\n                return i;\r\n            }\r\n        }\r\n        return users[_user].files.length;\r\n    }\r\n\r\n    function addFile(string memory _fileType, string memory _cid) public {\r\n        require(\r\n            findFileIndex(msg.sender, _cid) == users[msg.sender].files.length,\r\n            \"Element already exists\"\r\n        );\r\n        users[msg.sender].files.push(\r\n            File(_fileType, _cid, true, block.timestamp, block.timestamp)\r\n        );\r\n    }\r\n\r\n    function getFiles() public view returns (File[] memory) {\r\n        return users[msg.sender].files;\r\n    }\r\n\r\n    function updateIsUploaded(string memory _cid) public {\r\n        require(\r\n            findFileIndex(msg.sender, _cid) < users[msg.sender].files.length,\r\n            \"Element doesnot exists\"\r\n        );\r\n        users[msg.sender]\r\n            .files[findFileIndex(msg.sender, _cid)]\r\n            .isUploaded = true;\r\n    }\r\n}\r\n",
  "sourcePath": "F:/ipfs-hackathon-project/smart-contract/contracts/Cid.sol",
  "compiler": {
    "name": "solc",
    "version": "0.5.0+commit.1d4f565a.Emscripten.clang"
  },
  "schemaVersion": "3.0.2",
  "updatedAt": "2022-12-02T22:10:24.655Z",
  "devdoc": {
    "methods": {}
  },
  "userdoc": {
    "methods": {}
  }
}