{
  "contractName": "Cid",
  "abi": [
    {
      "anonymous": false,
      "inputs": [
        {
          "indexed": false,
          "name": "cid",
          "type": "string"
        },
        {
          "indexed": false,
          "name": "user",
          "type": "address"
        },
        {
          "indexed": false,
          "name": "fileType",
          "type": "string"
        },
        {
          "indexed": false,
          "name": "name",
          "type": "string"
        },
        {
          "indexed": false,
          "name": "createdAt",
          "type": "uint256"
        },
        {
          "indexed": false,
          "name": "updatedAt",
          "type": "uint256"
        }
      ],
      "name": "fileUploaded",
      "type": "event",
      "signature": "0x8df9420cffd6cb5150ba152fe465c4eed729479f0faa1d389fd181b74e6e73a6"
    },
    {
      "constant": false,
      "inputs": [
        {
          "name": "_fileType",
          "type": "string"
        },
        {
          "name": "_cid",
          "type": "string"
        },
        {
          "name": "name",
          "type": "string"
        }
      ],
      "name": "addFile",
      "outputs": [],
      "payable": false,
      "stateMutability": "nonpayable",
      "type": "function",
      "signature": "0xd45a5685"
    },
    {
      "constant": true,
      "inputs": [],
      "name": "getFiles",
      "outputs": [
        {
          "components": [
            {
              "name": "fileType",
              "type": "string"
            },
            {
              "name": "name",
              "type": "string"
            },
            {
              "name": "cid",
              "type": "string"
            },
            {
              "name": "isUploaded",
              "type": "bool"
            },
            {
              "name": "createdAt",
              "type": "uint256"
            },
            {
              "name": "updatedAt",
              "type": "uint256"
            }
          ],
          "name": "",
          "type": "tuple[]"
        }
      ],
      "payable": false,
      "stateMutability": "view",
      "type": "function",
      "signature": "0x2da96d73"
    },
    {
      "constant": false,
      "inputs": [
        {
          "name": "_cid",
          "type": "string"
        },
        {
          "name": "_success",
          "type": "bool"
        }
      ],
      "name": "updateIsUploaded",
      "outputs": [],
      "payable": false,
      "stateMutability": "nonpayable",
      "type": "function",
      "signature": "0x061a84d6"
    }
  ],
  "bytecode": "0x608060405234801561001057600080fd5b506110f4806100206000396000f3fe608060405260043610610057576000357c0100000000000000000000000000000000000000000000000000000000900463ffffffff168063061a84d61461005c5780632da96d7314610085578063d45a5685146100b0575b600080fd5b34801561006857600080fd5b50610083600480360361007e9190810190610af4565b6100d9565b005b34801561009157600080fd5b5061009a610365565b6040516100a79190610e71565b60405180910390f35b3480156100bc57600080fd5b506100d760048036036100d29190810190610b48565b610619565b005b6000803373ffffffffffffffffffffffffffffffffffffffff1673ffffffffffffffffffffffffffffffffffffffff1681526020019081526020016000206000018054905061012833846107da565b10151561016a576040517f08c379a000000000000000000000000000000000000000000000000000000000815260040161016190610f09565b60405180910390fd5b806000803373ffffffffffffffffffffffffffffffffffffffff1673ffffffffffffffffffffffffffffffffffffffff1681526020019081526020016000206000016101b633856107da565b8154811015156101c257fe5b906000526020600020906006020160030160006101000a81548160ff0219169083151502179055507f8df9420cffd6cb5150ba152fe465c4eed729479f0faa1d389fd181b74e6e73a682336000803373ffffffffffffffffffffffffffffffffffffffff1673ffffffffffffffffffffffffffffffffffffffff16815260200190815260200160002060000161025833876107da565b81548110151561026457fe5b90600052602060002090600602016000016000803373ffffffffffffffffffffffffffffffffffffffff1673ffffffffffffffffffffffffffffffffffffffff1681526020019081526020016000206000016102c033886107da565b8154811015156102cc57fe5b90600052602060002090600602016001016000803373ffffffffffffffffffffffffffffffffffffffff1673ffffffffffffffffffffffffffffffffffffffff16815260200190815260200160002060000161032833896107da565b81548110151561033457fe5b9060005260206000209060060201600401544260405161035996959493929190610e93565b60405180910390a15050565b60606000803373ffffffffffffffffffffffffffffffffffffffff1673ffffffffffffffffffffffffffffffffffffffff168152602001908152602001600020600001805480602002602001604051908101604052809291908181526020016000905b82821015610610578382906000526020600020906006020160c06040519081016040529081600082018054600181600116156101000203166002900480601f0160208091040260200160405190810160405280929190818152602001828054600181600116156101000203166002900480156104855780601f1061045a57610100808354040283529160200191610485565b820191906000526020600020905b81548152906001019060200180831161046857829003601f168201915b50505050508152602001600182018054600181600116156101000203166002900480601f0160208091040260200160405190810160405280929190818152602001828054600181600116156101000203166002900480156105275780601f106104fc57610100808354040283529160200191610527565b820191906000526020600020905b81548152906001019060200180831161050a57829003601f168201915b50505050508152602001600282018054600181600116156101000203166002900480601f0160208091040260200160405190810160405280929190818152602001828054600181600116156101000203166002900480156105c95780601f1061059e576101008083540402835291602001916105c9565b820191906000526020600020905b8154815290600101906020018083116105ac57829003601f168201915b505050505081526020016003820160009054906101000a900460ff1615151515815260200160048201548152602001600582015481525050815260200190600101906103c8565b50505050905090565b6000803373ffffffffffffffffffffffffffffffffffffffff1673ffffffffffffffffffffffffffffffffffffffff1681526020019081526020016000206000018054905061066833846107da565b1415156106aa576040517f08c379a00000000000000000000000000000000000000000000000000000000081526004016106a190610f29565b60405180910390fd5b6000803373ffffffffffffffffffffffffffffffffffffffff1673ffffffffffffffffffffffffffffffffffffffff16815260200190815260200160002060000160c060405190810160405280858152602001838152602001848152602001600015158152602001428152602001428152509080600181540180825580915050906001820390600052602060002090600602016000909192909190915060008201518160000190805190602001906107639291906109e5565b5060208201518160010190805190602001906107809291906109e5565b50604082015181600201908051906020019061079d9291906109e5565b5060608201518160030160006101000a81548160ff0219169083151502179055506080820151816004015560a08201518160050155505050505050565b600080600090505b6000808573ffffffffffffffffffffffffffffffffffffffff1673ffffffffffffffffffffffffffffffffffffffff1681526020019081526020016000206000018054905081101561099657826040516020018082805190602001908083835b6020831015156108675780518252602082019150602081019050602083039250610842565b6001836020036101000a038019825116818451168082178552505050505050905001915050604051602081830303815290604052805190602001206000808673ffffffffffffffffffffffffffffffffffffffff1673ffffffffffffffffffffffffffffffffffffffff168152602001908152602001600020600001828154811015156108f057fe5b9060005260206000209060060201600201604051602001808280546001816001161561010002031660029004801561095f5780601f1061093d57610100808354040283529182019161095f565b820191906000526020600020905b81548152906001019060200180831161094b575b505091505060405160208183030381529060405280519060200120141561098957809150506109df565b80806001019150506107e2565b506000808473ffffffffffffffffffffffffffffffffffffffff1673ffffffffffffffffffffffffffffffffffffffff1681526020019081526020016000206000018054905090505b92915050565b828054600181600116156101000203166002900490600052602060002090601f016020900481019282601f10610a2657805160ff1916838001178555610a54565b82800160010185558215610a54579182015b82811115610a53578251825591602001919060010190610a38565b5b509050610a619190610a65565b5090565b610a8791905b80821115610a83576000816000905550600101610a6b565b5090565b90565b6000610a968235611025565b905092915050565b600082601f8301121515610ab157600080fd5b8135610ac4610abf82610f76565b610f49565b91508082526020830160208301858383011115610ae057600080fd5b610aeb838284611067565b50505092915050565b60008060408385031215610b0757600080fd5b600083013567ffffffffffffffff811115610b2157600080fd5b610b2d85828601610a9e565b9250506020610b3e85828601610a8a565b9150509250929050565b600080600060608486031215610b5d57600080fd5b600084013567ffffffffffffffff811115610b7757600080fd5b610b8386828701610a9e565b935050602084013567ffffffffffffffff811115610ba057600080fd5b610bac86828701610a9e565b925050604084013567ffffffffffffffff811115610bc957600080fd5b610bd586828701610a9e565b9150509250925092565b610be881611031565b82525050565b6000610bf982610fc1565b80845260208401935083602082028501610c1285610fa2565b60005b84811015610c4b578383038852610c2d838351610dcb565b9250610c3882610fe2565b9150602088019750600181019050610c15565b508196508694505050505092915050565b610c6581610fef565b82525050565b6000610c7682610fd7565b808452610c8a816020860160208601611076565b610c93816110a9565b602085010191505092915050565b6000610cac82610fcc565b808452610cc0816020860160208601611076565b610cc9816110a9565b602085010191505092915050565b600081546001811660008114610cf45760018114610d1457610d55565b607f600283041680865260ff198316602087015260408601935050610d55565b60028204808652602086019550610d2a85610faf565b60005b82811015610d4c57815481890152600182019150602081019050610d2d565b80880195505050505b505092915050565b6000601482527f66696c6520646f6573206e6f74206578697374730000000000000000000000006020830152604082019050919050565b6000601382527f46696c6520616c726561647920657869737473000000000000000000000000006020830152604082019050919050565b600060c0830160008301518482036000860152610de88282610ca1565b91505060208301518482036020860152610e028282610ca1565b91505060408301518482036040860152610e1c8282610ca1565b9150506060830151610e316060860182610c5c565b506080830151610e446080860182610e62565b5060a0830151610e5760a0860182610e62565b508091505092915050565b610e6b8161101b565b82525050565b60006020820190508181036000830152610e8b8184610bee565b905092915050565b600060c0820190508181036000830152610ead8189610c6b565b9050610ebc6020830188610bdf565b8181036040830152610ece8187610cd7565b90508181036060830152610ee28186610cd7565b9050610ef16080830185610e62565b610efe60a0830184610e62565b979650505050505050565b60006020820190508181036000830152610f2281610d5d565b9050919050565b60006020820190508181036000830152610f4281610d94565b9050919050565b6000604051905081810181811067ffffffffffffffff82111715610f6c57600080fd5b8060405250919050565b600067ffffffffffffffff821115610f8d57600080fd5b601f19601f8301169050602081019050919050565b6000602082019050919050565b60008160005260206000209050919050565b600081519050919050565b600081519050919050565b600081519050919050565b6000602082019050919050565b60008115159050919050565b600073ffffffffffffffffffffffffffffffffffffffff82169050919050565b6000819050919050565b60008115159050919050565b600061103c82611043565b9050919050565b600061104e82611055565b9050919050565b600061106082610ffb565b9050919050565b82818337600083830152505050565b60005b83811015611094578082015181840152602081019050611079565b838111156110a3576000848401525b50505050565b6000601f19601f830116905091905056fea265627a7a723058205b7d72f6a1a9a434cf6268e235ff2213b47d4e950489a884754fe6d1244a00a66c6578706572696d656e74616cf50037",
  "source": "pragma solidity >=0.4.22 <0.9.0;\r\npragma experimental ABIEncoderV2;\r\n\r\ncontract Cid {\r\n    mapping(address => User) users;\r\n\r\n    struct User {\r\n        File[] files;\r\n    }\r\n    struct File {\r\n        string fileType;\r\n        string name;\r\n        string cid;\r\n        bool isUploaded;\r\n        uint256 createdAt;\r\n        uint256 updatedAt;\r\n    }\r\n    event fileUploaded(\r\n        string cid,\r\n        address user,\r\n        string fileType,\r\n        string name,\r\n        uint256 createdAt,\r\n        uint256 updatedAt\r\n    );\r\n\r\n    function findFileIndex(address _user, string memory _cid)\r\n        internal\r\n        view\r\n        returns (uint256)\r\n    {\r\n        for (uint256 i = 0; i < users[_user].files.length; i++) {\r\n            if (\r\n                keccak256(abi.encodePacked(users[_user].files[i].cid)) ==\r\n                keccak256(abi.encodePacked(_cid))\r\n            ) {\r\n                return i;\r\n            }\r\n        }\r\n        return users[_user].files.length;\r\n    }\r\n\r\n    function addFile(\r\n        string memory _fileType,\r\n        string memory _cid,\r\n        string memory name\r\n    ) public {\r\n        require(\r\n            findFileIndex(msg.sender, _cid) == users[msg.sender].files.length,\r\n            \"File already exists\"\r\n        );\r\n        users[msg.sender].files.push(\r\n            File(_fileType, name, _cid, false, block.timestamp, block.timestamp)\r\n        );\r\n    }\r\n\r\n    function getFiles() public view returns (File[] memory) {\r\n        return users[msg.sender].files;\r\n    }\r\n\r\n    function updateIsUploaded(string memory _cid, bool _success) public {\r\n        require(\r\n            findFileIndex(msg.sender, _cid) < users[msg.sender].files.length,\r\n            \"file does not exists\"\r\n        );\r\n        users[msg.sender]\r\n            .files[findFileIndex(msg.sender, _cid)]\r\n            .isUploaded = _success;\r\n        emit fileUploaded(\r\n            _cid,\r\n            msg.sender,\r\n            users[msg.sender].files[findFileIndex(msg.sender, _cid)].fileType,\r\n            users[msg.sender].files[findFileIndex(msg.sender, _cid)].name,\r\n            users[msg.sender].files[findFileIndex(msg.sender, _cid)].createdAt,\r\n            block.timestamp\r\n        );\r\n    }\r\n}\r\n",
  "sourcePath": "F:/ipfs-hackathon-project/smart-contract/contracts/Cid.sol",
  "compiler": {
    "name": "solc",
    "version": "0.5.0+commit.1d4f565a.Emscripten.clang"
  },
  "schemaVersion": "3.0.2",
  "updatedAt": "2022-12-03T02:08:39.732Z",
  "devdoc": {
    "methods": {}
  },
  "userdoc": {
    "methods": {}
  }
}