{
  "contractName": "Cid",
  "abi": [
    {
      "constant": false,
      "inputs": [
        {
          "name": "_fileType",
          "type": "string"
        },
        {
          "name": "_cid",
          "type": "string"
        }
      ],
      "name": "addFile",
      "outputs": [],
      "payable": false,
      "stateMutability": "nonpayable",
      "type": "function",
      "signature": "0x248bfc3b"
    },
    {
      "constant": true,
      "inputs": [],
      "name": "getFiles",
      "outputs": [
        {
          "components": [
            {
              "name": "fileType",
              "type": "string"
            },
            {
              "name": "cid",
              "type": "string"
            },
            {
              "name": "isUploaded",
              "type": "bool"
            },
            {
              "name": "createdAt",
              "type": "uint256"
            },
            {
              "name": "updatedAt",
              "type": "uint256"
            }
          ],
          "name": "",
          "type": "tuple[]"
        }
      ],
      "payable": false,
      "stateMutability": "view",
      "type": "function",
      "signature": "0x2da96d73"
    },
    {
      "constant": false,
      "inputs": [
        {
          "name": "_cid",
          "type": "string"
        },
        {
          "name": "_success",
          "type": "bool"
        }
      ],
      "name": "updateIsUploaded",
      "outputs": [],
      "payable": false,
      "stateMutability": "nonpayable",
      "type": "function",
      "signature": "0x061a84d6"
    }
  ],
  "bytecode": "0x608060405234801561001057600080fd5b50610cbe806100206000396000f3fe608060405260043610610057576000357c0100000000000000000000000000000000000000000000000000000000900463ffffffff168063061a84d61461005c578063248bfc3b146100855780632da96d73146100ae575b600080fd5b34801561006857600080fd5b50610083600480360361007e91908101906108b7565b6100d9565b005b34801561009157600080fd5b506100ac60048036036100a7919081019061090b565b6101ee565b005b3480156100ba57600080fd5b506100c361038b565b6040516100d09190610b24565b60405180910390f35b6000803373ffffffffffffffffffffffffffffffffffffffff1673ffffffffffffffffffffffffffffffffffffffff16815260200190815260200160002060000180549050610128338461059d565b10151561016a576040517f08c379a000000000000000000000000000000000000000000000000000000000815260040161016190610b46565b60405180910390fd5b806000803373ffffffffffffffffffffffffffffffffffffffff1673ffffffffffffffffffffffffffffffffffffffff1681526020019081526020016000206000016101b6338561059d565b8154811015156101c257fe5b906000526020600020906005020160020160006101000a81548160ff0219169083151502179055505050565b6000803373ffffffffffffffffffffffffffffffffffffffff1673ffffffffffffffffffffffffffffffffffffffff1681526020019081526020016000206000018054905061023d338361059d565b14151561027f576040517f08c379a000000000000000000000000000000000000000000000000000000000815260040161027690610b66565b60405180910390fd5b6000803373ffffffffffffffffffffffffffffffffffffffff1673ffffffffffffffffffffffffffffffffffffffff16815260200190815260200160002060000160a060405190810160405280848152602001838152602001600015158152602001428152602001428152509080600181540180825580915050906001820390600052602060002090600502016000909192909190915060008201518160000190805190602001906103329291906107a8565b50602082015181600101908051906020019061034f9291906107a8565b5060408201518160020160006101000a81548160ff02191690831515021790555060608201518160030155608082015181600401555050505050565b60606000803373ffffffffffffffffffffffffffffffffffffffff1673ffffffffffffffffffffffffffffffffffffffff168152602001908152602001600020600001805480602002602001604051908101604052809291908181526020016000905b82821015610594578382906000526020600020906005020160a06040519081016040529081600082018054600181600116156101000203166002900480601f0160208091040260200160405190810160405280929190818152602001828054600181600116156101000203166002900480156104ab5780601f10610480576101008083540402835291602001916104ab565b820191906000526020600020905b81548152906001019060200180831161048e57829003601f168201915b50505050508152602001600182018054600181600116156101000203166002900480601f01602080910402602001604051908101604052809291908181526020018280546001816001161561010002031660029004801561054d5780601f106105225761010080835404028352916020019161054d565b820191906000526020600020905b81548152906001019060200180831161053057829003601f168201915b505050505081526020016002820160009054906101000a900460ff1615151515815260200160038201548152602001600482015481525050815260200190600101906103ee565b50505050905090565b600080600090505b6000808573ffffffffffffffffffffffffffffffffffffffff1673ffffffffffffffffffffffffffffffffffffffff1681526020019081526020016000206000018054905081101561075957826040516020018082805190602001908083835b60208310151561062a5780518252602082019150602081019050602083039250610605565b6001836020036101000a038019825116818451168082178552505050505050905001915050604051602081830303815290604052805190602001206000808673ffffffffffffffffffffffffffffffffffffffff1673ffffffffffffffffffffffffffffffffffffffff168152602001908152602001600020600001828154811015156106b357fe5b906000526020600020906005020160010160405160200180828054600181600116156101000203166002900480156107225780601f10610700576101008083540402835291820191610722565b820191906000526020600020905b81548152906001019060200180831161070e575b505091505060405160208183030381529060405280519060200120141561074c57809150506107a2565b80806001019150506105a5565b506000808473ffffffffffffffffffffffffffffffffffffffff1673ffffffffffffffffffffffffffffffffffffffff1681526020019081526020016000206000018054905090505b92915050565b828054600181600116156101000203166002900490600052602060002090601f016020900481019282601f106107e957805160ff1916838001178555610817565b82800160010185558215610817579182015b828111156108165782518255916020019190600101906107fb565b5b5090506108249190610828565b5090565b61084a91905b8082111561084657600081600090555060010161082e565b5090565b90565b60006108598235610c25565b905092915050565b600082601f830112151561087457600080fd5b813561088761088282610bb3565b610b86565b915080825260208301602083018583830111156108a357600080fd5b6108ae838284610c31565b50505092915050565b600080604083850312156108ca57600080fd5b600083013567ffffffffffffffff8111156108e457600080fd5b6108f085828601610861565b92505060206109018582860161084d565b9150509250929050565b6000806040838503121561091e57600080fd5b600083013567ffffffffffffffff81111561093857600080fd5b61094485828601610861565b925050602083013567ffffffffffffffff81111561096157600080fd5b61096d85828601610861565b9150509250929050565b600061098282610bec565b8084526020840193508360208202850161099b85610bdf565b60005b848110156109d45783830388526109b6838351610a98565b92506109c182610c02565b915060208801975060018101905061099e565b508196508694505050505092915050565b6109ee81610c0f565b82525050565b60006109ff82610bf7565b808452610a13816020860160208601610c40565b610a1c81610c73565b602085010191505092915050565b6000601482527f66696c6520646f6573206e6f74206578697374730000000000000000000000006020830152604082019050919050565b6000601382527f46696c6520616c726561647920657869737473000000000000000000000000006020830152604082019050919050565b600060a0830160008301518482036000860152610ab582826109f4565b91505060208301518482036020860152610acf82826109f4565b9150506040830151610ae460408601826109e5565b506060830151610af76060860182610b15565b506080830151610b0a6080860182610b15565b508091505092915050565b610b1e81610c1b565b82525050565b60006020820190508181036000830152610b3e8184610977565b905092915050565b60006020820190508181036000830152610b5f81610a2a565b9050919050565b60006020820190508181036000830152610b7f81610a61565b9050919050565b6000604051905081810181811067ffffffffffffffff82111715610ba957600080fd5b8060405250919050565b600067ffffffffffffffff821115610bca57600080fd5b601f19601f8301169050602081019050919050565b6000602082019050919050565b600081519050919050565b600081519050919050565b6000602082019050919050565b60008115159050919050565b6000819050919050565b60008115159050919050565b82818337600083830152505050565b60005b83811015610c5e578082015181840152602081019050610c43565b83811115610c6d576000848401525b50505050565b6000601f19601f830116905091905056fea265627a7a723058205e7158e059060f3a95acb0c9331d0657366bb9ca7aa7492e33aea891013f0ed06c6578706572696d656e74616cf50037",
  "source": "pragma solidity >=0.4.22 <0.9.0;\r\npragma experimental ABIEncoderV2;\r\n\r\ncontract Cid {\r\n    mapping(address => User) users;\r\n\r\n    struct User {\r\n        File[] files;\r\n    }\r\n    struct File {\r\n        string fileType;\r\n        string cid;\r\n        bool isUploaded;\r\n        uint256 createdAt;\r\n        uint256 updatedAt;\r\n    }\r\n\r\n    function findFileIndex(address _user, string memory _cid)\r\n        internal\r\n        view\r\n        returns (uint256)\r\n    {\r\n        for (uint256 i = 0; i < users[_user].files.length; i++) {\r\n            if (\r\n                keccak256(abi.encodePacked(users[_user].files[i].cid)) ==\r\n                keccak256(abi.encodePacked(_cid))\r\n            ) {\r\n                return i;\r\n            }\r\n        }\r\n        return users[_user].files.length;\r\n    }\r\n\r\n    function addFile(string memory _fileType, string memory _cid) public {\r\n        require(\r\n            findFileIndex(msg.sender, _cid) == users[msg.sender].files.length,\r\n            \"File already exists\"\r\n        );\r\n        users[msg.sender].files.push(\r\n            File(_fileType, _cid, false, block.timestamp, block.timestamp)\r\n        );\r\n    }\r\n\r\n    function getFiles() public view returns (File[] memory) {\r\n        return users[msg.sender].files;\r\n    }\r\n\r\n    function updateIsUploaded(string memory _cid, bool _success) public {\r\n        require(\r\n            findFileIndex(msg.sender, _cid) < users[msg.sender].files.length,\r\n            \"file does not exists\"\r\n        );\r\n        users[msg.sender]\r\n            .files[findFileIndex(msg.sender, _cid)]\r\n            .isUploaded = _success;\r\n    }\r\n}\r\n",
  "sourcePath": "F:/ipfs-hackathon-project/smart-contract/contracts/Cid.sol",
  "compiler": {
    "name": "solc",
    "version": "0.5.0+commit.1d4f565a.Emscripten.clang"
  },
  "schemaVersion": "3.0.2",
  "updatedAt": "2022-12-02T22:31:47.806Z",
  "devdoc": {
    "methods": {}
  },
  "userdoc": {
    "methods": {}
  }
}